:100000000C9443010C94C6180C949F180C946B012B
:100010000C946B010C946B010C946B010C94ED1817
:100020000C946B010C946B010C946B010C946B01A0
:100030000C946B010C946B010C946B010C946B0190
:100040000C9455180C946B010C946F190C9449196D
:100050000C946B010C946B010C946B010C946B0170
:100060000C946B010C946B01AB0055007C00840078
:100070004B00B5001B00E5000017E8000047B80082
:100080000077AB0000ABAB000055AB000022DD00F9
:100090000E00F2003E00C20071008F00A1005F0060
:1000A000D0002F00F907000000000000000033001E
:1000B00000006600000099000000CC000000FF0076
:1000C0000033FF000066FF000099FF0000CCFF0036
:1000D00000FFFF0033FFFF0066FFFF0099FFFF00F6
:1000E000CCFFFF00FFFFFF00006400000064000081
:1000F0002F6B55000064000000800000228B22005E
:10010000238E6B0000800000578B2E00AACD660066
:1001100032CD320032CD9A0090EE900000FC7C008F
:10012000AACD6600228B2200FF0000008B00000099
:100130008B0000008B0000008B0000008B00000093
:100140008B0000008B000000FF0000008B0000000F
:10015000EBCE8700EBCE8700E6D8AD00FFFFFF00B7
:10016000E6D8AD00EBCE8700701919008B000000B7
:1001700070191900800000008B000000CD00000005
:10018000578B2E0080800000A09E5F00FF000000C3
:100190008B8B0000ED956400D4FF7F00578B2E0001
:1001A000FFFF0000FACE8700000000000000800082
:1001B000000000000000800000008B0000008000B4
:1001C00000008B0000008B0000008B000000FF008F
:1001D00000A5FF00FFFFFF0000A5FF000000FF00DB
:1001E00000008B00000000000000FF00002AD50086
:1001F0000055AB00007FAB0000ABAB0000D5560054
:1002000000FF00002AD5000055AB0000AA560000F0
:10021000FF000000D5002A00AB00550081007F00E0
:100220005500AB002B00D50002000000002500287F
:10023000002B0000000000240027002A000000001E
:10024000002300260029000404040404040404021A
:100250000202020202030303030303010204081063
:100260002040800102040810200102040810200030
:100270000000080002010000030407000000000065
:1002800000000000FD1911241FBECFEFD8E0DEBF33
:10029000CDBF11E0A0E0B1E0E6EDF1E402C00590D1
:1002A0000D92A83AB107D9F725E0A8EAB1E001C05C
:1002B0001D92A433B207E1F711E0C3E4D1E004C01A
:1002C0002197FE010E94B91FC234D107C9F70E94CD
:1002D000181B0C94E9200C940000EF92FF920F93EE
:1002E0001F93CF93DF93EC017B018A01E881F981B1
:1002F0000480F581E02D0995FB82EA821E870D8737
:10030000E881F9810284F385E02DCE0109950097FB
:1003100001F19C0150E040E060E472E48FE090E085
:100320000E94171F8091560290915702A091580287
:10033000B091590282179307A407B50710F4DA01A8
:10034000C9018093560290935702A0935802B0932C
:100350005902CE01DF91CF911F910F91FF90EF9045
:10036000089520E330E0FB01DC0120FF05C002C05E
:1003700001900D9201900D922250D0F73040C0F7BD
:1003800008958617970710F40C94B101C096605D2C
:100390007F4F20E330E0FB01DC0120FF05C002C0FD
:1003A00002900E9202900E922250D0F73040C0F789
:1003B00008951F93CF93DF93FC01842F82958F7054
:1003C0004F70EB01A82FAA0FA80FA60FB72FB11DD2
:1003D0009C9111965C91119712966C9112974423FF
:1003E00009F42AC08F3011F0ED0123964295407F29
:1003F000142F1095392F319F030E30E0311D988155
:10040000792F749F070E70E0711D932F970F519FE6
:10041000050E50E0511D3981349F030E30E0311D2F
:10042000530F619F060E60E0611D3A81349F030EF9
:1004300030E0311D630F11242F3FB1F02F5F99235E
:1004400031F0392F329F030E30E0311D932F5523A9
:1004500021F0529F050E50E0511D662321F0629F4E
:10046000060E60E0611D1124908351836283CF01E9
:10047000DF91CF911F910895DA01FC0190E080E0B7
:100480008617970769F02C91208311962C9111976C
:10049000218312962C911297228301963396F0CFE6
:1004A0000895833081F028F4813099F08230A9F0EA
:1004B00008958730A9F08830C9F08430B1F4809174
:1004C00080008F7D03C0809180008F7780938000B3
:1004D000089584B58F7784BD089584B58F7DFBCF53
:1004E0008091B0008F778093B00008958091B00024
:1004F0008F7DF9CFCF93DF93282F30E0F901E159B9
:10050000FD4F8491F901E55AFD4FD491F901E95B62
:10051000FD4FC491CC23A1F081110E945102EC2F18
:10052000F0E0EE0FFF1FE35CFD4FA591B491EC915D
:10053000ED2381E090E009F480E0DF91CF91089510
:1005400080E090E0FACFCF93DF9390E0FC01E55A92
:10055000FD4F2491895B9D4FFC0184918823D1F04C
:1005600090E0880F991FFC01ED5CFD4FA591B491BF
:10057000FC01E75DFD4FC591D491623071F49FB7E6
:10058000F8943C91822F809583238C93E8812E2BC5
:1005900028839FBFDF91CF9108958FB7F894EC9196
:1005A0002E2B2C938FBFF6CF3FB7F89480913F024C
:1005B00090914002A0914102B091420226B5A89BC1
:1005C00005C02F3F19F00196A11DB11D3FBFBA2FE5
:1005D000A92F982F8827BC01CD01620F711D811DA5
:1005E000911D42E0660F771F881F991F4A95D1F72A
:1005F00008954F925F926F927F929F92AF92BF92B7
:10060000CF92DF92EF92FF920F931F93CF93DF93DE
:1006100000D01F92CDB7DEB7F82E80915602909190
:100620005702A0915802B0915902892B8A2B8B2B2B
:10063000D9F00E94D40200914F02109150022091F3
:10064000510230915202601B710B820B930B00918F
:1006500056021091570220915802309159026017AA
:10066000710782079307C8F20E94D40260934F0279
:10067000709350028093510290935202E0915E0277
:10068000F0915F02309759F040915A0250915B020D
:1006900060915C0270915D028F2D0995F82E00919A
:1006A0004D0210914E024F2C512C712C612C0115D2
:1006B000110509F45EC0D8011C96EC901C9780913E
:1006C0005402909155028436910510F41C961C92A8
:1006D000D801ED91FC91A280B38019821A821B820D
:1006E000FF2089F1F8013696D12CC12C21912223CB
:1006F00019F19280992001F130E050E040E02F5F45
:100700003F4F4F4F5F4FC301B2010E947A1F9B01C1
:10071000AC01892D90E0B0E0A0E0BC01CD016F5F9D
:100720007F4F8F4F9F4F0E947A1FA1E0B0E0AC0F28
:10073000BD1FAC0DBD1D8C93BFEFCB1ADB0A83E050
:10074000C816D10499F6D8011D964D915C911E975B
:1007500012966D917C919E012F5F3F4FC801F5016C
:100760000995D8011C96EC921C9714960D911C913A
:100770009ECF80914B0290914C029C012F5F3F4F86
:1007800030934C0220934B0249970CF445C08FB72D
:10079000F8942091430230914402409145025091D7
:1007A00046028FBFE0914B02F0914C0288EE93E03D
:1007B000E89FB001E99F700DF89F700D1124072E7E
:1007C000000C880B990BC0904702D0904802E09033
:1007D0004902F0904A022C193D094E095F090E9416
:1007E000491F309355022093540210924C021092EC
:1007F0004B022FB7F8948091430290914402A0914C
:100800004502B09146022FBF809347029093480261
:10081000A0934902B0934A020F900F900F90DF917E
:10082000CF911F910F91FF90EF90DF90CF90BF90ED
:10083000AF909F907F906F905F904F9008958F92B0
:100840009F92AF92BF92CF92DF92EF92FF924B01B5
:100850005C010E94D4026B017C010E94D4026C19DD
:100860007D098E099F09683E734081059105A8F3B3
:1008700021E0821A9108A108B10888EEC80E83E031
:10088000D81EE11CF11C81149104A104B10429F7C4
:10089000FF90EF90DF90CF90BF90AF909F908F90A0
:1008A00008950895CF93DF939091040189130BC0AD
:1008B000E8E2F2E0E4919FEF90930401E13059F116
:1008C00038F1E23071F1282F30E0F901E159FD4FA4
:1008D0008491F901E55AFD4FD491F901E95BFD4F8F
:1008E000C491CC2391F081110E945102EC2FF0E0D1
:1008F000EE0FFF1FE75DFD4FA591B4918FB7F89400
:10090000EC91D095DE23DC938FBFDF91CF910895DA
:1009100010926E00D8CF90916F009D7F90936F00E2
:10092000D2CF909170009D7F9093700091E0909352
:10093000B0009091B100987F94609093B1001092B4
:10094000B300C1CFAF92BF92CF92DF92EF92FF92EE
:100950000F931F93CF93DF936C017B018B01040FE7
:10096000151FEB015E01AE18BF08C017D10759F083
:100970006991D601ED91FC910190F081E02DC601C5
:100980000995892B79F7C501DF91CF911F910F91BF
:10099000FF90EF90DF90CF90BF90AF900895FC0153
:1009A000538D448D252F30E0842F90E0821B930BD4
:1009B000541710F0CF96089501970895FC01918D7A
:1009C000828D981761F0A28DAE0FBF2FB11D5D967D
:1009D0008C91928D9F5F9F73928F90E008958FEF1F
:1009E0009FEF0895FC01918D828D981731F0828DD3
:1009F000E80FF11D858D90E008958FEF9FEF08952A
:100A0000FC01918D228D892F90E0805C9F4F821B8D
:100A100091098F739927089580E692E00E9400055E
:100A200021E0892B09F420E0822F089580E090E0F6
:100A3000892B29F00E940C0581110C940000089567
:100A4000FC01A48DA80FB92FB11DA35ABF4F2C9143
:100A5000848D90E001968F739927848FA689B7893A
:100A60002C93A089B1898C91837080648C93938D31
:100A7000848D981306C00288F389E02D80818F7DD4
:100A800080830895EF92FF920F931F93CF93DF938C
:100A9000EC0181E0888F9B8D8C8D98131AC0E889BA
:100AA000F989808185FF15C09FB7F894EE89FF8989
:100AB0006083E889F98980818370806480839FBF27
:100AC00081E090E0DF91CF911F910F91FF90EF9027
:100AD0000895F62E0B8D10E00F5F1F4F0F73112737
:100AE000E02E8C8D8E110CC00FB607FCFACFE88972
:100AF000F989808185FFF5CFCE010E942005F1CFD5
:100B0000EB8DEC0FFD2FF11DE35AFF4FF0829FB7E5
:100B1000F8940B8FEA89FB8980818062CFCFCF93D5
:100B2000DF93EC01888D8823B9F0AA89BB89E88915
:100B3000F9898C9185FD03C0808186FD0DC00FB6BB
:100B400007FCF7CF8C9185FFF2CF808185FFEDCF39
:100B5000CE010E942005E9CFDF91CF9108950F9338
:100B60001F93DC01AC01405D5F4FFB0105911591C6
:100B7000259134912C9311961C93119712960C93F6
:100B800012976C5F7F4F1396A417B50771F71F91EB
:100B90000F9108950F931F93DC01C096FB010591FF
:100BA0001591259134912C9311961C9311971296BF
:100BB0000C9312976C5F7F4F1396A817B90771F7C4
:100BC0001F910F9108950F931F93CF93DF9320915F
:100BD000AF012F5F322F37703093AF0120FF2BC052
:100BE00020E831FD2064347009F02062205FFC01B0
:100BF000EC01239600E011E06485662329F070E0A3
:100C0000C8010E949E1F6F5F6187322F369F030EBF
:100C100030E0311D1124311110C01682662311F00D
:100C2000615061873196EC17FD0731F7DF91CF9165
:100C30001F910F91089520E0D4CF31503683EECF2D
:100C4000CF93DF93EC010E94D40279836883DF9114
:100C5000CF910895CF93DF93EC010E94D4022881B5
:100C60003981621B730B6A307105B8F3DF91CF9144
:100C700008954F925F926F927F928F929F92AF9260
:100C8000CF92DF92EF92FF920F931F93CF93DF9358
:100C9000EB010F962C010E942A06F894E881F98155
:100CA0000BB104601BB11B7F1BB9CA848F814C2D13
:100CB000481B842F4F839F846A807B80FD84EC8453
:100CC000DE84F394E394D3949E8138858984AB8445
:100CD0004181D30120E0622F722F718144278894D3
:100CE0007111780F08F47FEF81958894F0FC470F1D
:100CF00047958894F1FC470F47958894F2FC470F7D
:100D000047958894F3FC470F47958894F4FC470F68
:100D100047958894F5FC470F47958894F6FC470F54
:100D200047958894F7FC470F47958894272FF11033
:100D3000242F8C0D422F002C0BB900C047FF1BB98C
:100D400070812227889400C000C0002C1BB971114B
:100D5000790F00C0002C0BB900C046FF1BB908F486
:100D60007FEF9195889400C000C0002C1BB9E0FC77
:100D7000270F00C0002C0BB900C045FF1BB92795F9
:100D80008894E1FC270F00C000C0002C1BB92795F8
:100D9000889400C0002C0BB900C044FF1BB9E2FCD2
:100DA000270F2795889400C000C0002C1BB9E3FCD6
:100DB000270F00C0002C0BB900C043FF1BB92795BB
:100DC0008894E4FC270F00C000C0002C1BB92795B5
:100DD000889400C0002C0BB900C042FF1BB9E5FC91
:100DE000270F2795889400C000C0002C1BB9E6FC93
:100DF000270F00C0002C0BB900C041FF1BB927957D
:100E00008894E7FC270F00C000C0002C1BB9279571
:100E1000889400C0002C0BB900C040FF1BB9472FBD
:100E2000E110422F980D00C000C0002C1BB900C07B
:100E300000C0002C0BB900C047FF1BB972812227EC
:100E4000889400C000C0002C1BB97111730F00C042
:100E5000002C0BB900C046FF1BB908F47FEFE90D69
:100E6000F11D00C000C0002C1BB9D0FC270F00C032
:100E7000002C0BB900C045FF1BB927958894D1FC05
:100E8000270F00C000C0002C1BB92795889400C014
:100E9000002C0BB900C044FF1BB9D2FC270F2795CB
:100EA000889400C000C0002C1BB9D3FC270F00C0E1
:100EB000002C0BB900C043FF1BB927958894D4FCC4
:100EC000270F00C000C0002C1BB92795889400C0D4
:100ED000002C0BB900C042FF1BB9D5FC270F27958A
:100EE000889400C000C0002C1BB9D6FC270F00C09E
:100EF000002C0BB900C041FF1BB927958894D7FC83
:100F0000270F00C000C0002C1BB92795889400C093
:100F1000002C0BB900C040FF1BB9472FD110422F46
:100F2000319500C000C0002C1BB93A0D00C000C0B4
:100F30000BB900C047FF1BB971812227889400C0FC
:100F400000C0002C1BB97111780F00C0002C0BB928
:100F500000C046FF1BB908F47FEF8195889400C05C
:100F600000C0002C1BB9F0FC270F00C0002C0BB9EF
:100F700000C045FF1BB927958894F1FC270F00C0DE
:100F800000C0002C1BB92795889400C0002C0BB919
:100F900000C044FF1BB9F2FC270F2795889400C0BE
:100FA00000C0002C1BB9F3FC270F00C0002C0BB9AC
:100FB00000C043FF1BB927958894F4FC270F00C09D
:100FC00000C0002C1BB92795889400C0002C0BB9D9
:100FD00000C042FF1BB9F5FC270F2795889400C07D
:100FE00000C0002C1BB9F6FC270F00C0002C0BB969
:100FF00000C041FF1BB927958894F7FC270F00C05C
:1010000000C0002C1BB92795889400C0002C0BB998
:1010100000C040FF1BB9472FF110422F8C0D00C0BC
:1010200000C0002C1BB9119709F086CE20EE31E0EC
:10103000D3010E94B21FDC01CB01F4E0B695A79565
:1010400097958795FA95D1F730E020E0B901EAE964
:101050006E9E060C611D7E9E600D711D1124670D34
:10106000711D860F971FA11DB11D893E43E0940796
:10107000A105B10508F434C0885E9340A109B10907
:1010800042E0B695A795979587954A95D1F747E0A1
:10109000849F080E211D949F200D311D1124290FBE
:1010A000311D6091AE0170E0860F971F820F931F74
:1010B0004091430250914402609145027091460272
:1010C000292F3327420F531F611D711D4093430287
:1010D0005093440260934502709346028093AE01A0
:1010E0007894C201DF91CF911F910F91FF90EF9003
:1010F000DF90CF90AF909F908F907F906F905F9098
:101100004F900C94200680E991E00895529A08953A
:101110004F925F926F927F928F929F92AF92CF92F7
:10112000DF92EF92FF920F931F93CF93DF93EB0128
:101130000F962C010E942A06F894E881F9810BB1E0
:1011400008601BB1177F1BB9CA848F814C2D481BC7
:10115000842F4F839F846A807B80FD84EC84DE84AF
:10116000F394E394D3949E8138858984AB84418140
:10117000D30120E0622F722F71814427889471116E
:10118000780F08F47FEF81958894F0FC470F47951E
:101190008894F1FC470F47958894F2FC470F4795D8
:1011A0008894F3FC470F47958894F4FC470F4795C4
:1011B0008894F5FC470F47958894F6FC470F4795B0
:1011C0008894F7FC470F47958894272FF110242F18
:1011D0008C0D422F002C0BB900C047FF1BB970814A
:1011E0002227889400C000C0002C1BB97111790F10
:1011F00000C0002C0BB900C046FF1BB908F47FEFFC
:101200009195889400C000C0002C1BB9E0FC270F0A
:1012100000C0002C0BB900C045FF1BB9279588946E
:10122000E1FC270F00C000C0002C1BB92795889453
:1012300000C0002C0BB900C044FF1BB9E2FC270F13
:101240002795889400C000C0002C1BB9E3FC270F31
:1012500000C0002C0BB900C043FF1BB92795889430
:10126000E4FC270F00C000C0002C1BB92795889410
:1012700000C0002C0BB900C042FF1BB9E5FC270FD2
:101280002795889400C000C0002C1BB9E6FC270FEE
:1012900000C0002C0BB900C041FF1BB927958894F2
:1012A000E7FC270F00C000C0002C1BB927958894CD
:1012B00000C0002C0BB900C040FF1BB9472FE11044
:1012C000422F980D00C000C0002C1BB900C000C008
:1012D000002C0BB900C047FF1BB9728122278894EC
:1012E00000C000C0002C1BB97111730F00C0002C8E
:1012F0000BB900C046FF1BB908F47FEFE90DF11DE3
:1013000000C000C0002C1BB9D0FC270F00C0002C6F
:101310000BB900C045FF1BB927958894D1FC270F56
:1013200000C000C0002C1BB92795889400C0002C79
:101330000BB900C044FF1BB9D2FC270F2795889436
:1013400000C000C0002C1BB9D3FC270F00C0002C2C
:101350000BB900C043FF1BB927958894D4FC270F15
:1013600000C000C0002C1BB92795889400C0002C39
:101370000BB900C042FF1BB9D5FC270F27958894F5
:1013800000C000C0002C1BB9D6FC270F00C0002CE9
:101390000BB900C041FF1BB927958894D7FC270FD4
:1013A00000C000C0002C1BB92795889400C0002CF9
:1013B0000BB900C040FF1BB9472FD110422F319508
:1013C00000C000C0002C1BB93A0D00C000C00BB912
:1013D00000C047FF1BB971812227889400C000C05C
:1013E000002C1BB97111780F00C0002C0BB900C084
:1013F00046FF1BB908F47FEF8195889400C000C0B8
:10140000002C1BB9F0FC270F00C0002C0BB900C04A
:1014100045FF1BB927958894F1FC270F00C000C039
:10142000002C1BB92795889400C0002C0BB900C074
:1014300044FF1BB9F2FC270F2795889400C000C019
:10144000002C1BB9F3FC270F00C0002C0BB900C007
:1014500043FF1BB927958894F4FC270F00C000C0F8
:10146000002C1BB92795889400C0002C0BB900C034
:1014700042FF1BB9F5FC270F2795889400C000C0D8
:10148000002C1BB9F6FC270F00C0002C0BB900C0C4
:1014900041FF1BB927958894F7FC270F00C000C0B7
:1014A000002C1BB92795889400C0002C0BB900C0F4
:1014B00040FF1BB9472FF110422F8C0D00C000C018
:1014C000002C1BB9119709F086CE20EE31E0D30134
:1014D0000E94B21FDC01CB01F4E0B695A795979569
:1014E0008795FA95D1F730E020E0B901EAE96E9EE0
:1014F000060C611D7E9E600D711D1124670D711D0E
:10150000860F971FA11DB11D893E43E09407A105D9
:10151000B10508F434C0885E9340A109B10942E0E6
:10152000B695A795979587954A95D1F747E0849FFB
:10153000080E211D949F200D311D1124290F311DEE
:101540006091AE0170E0860F971F820F931F40914C
:101550004302509144026091450270914602292F46
:101560003327420F531F611D711D40934302509357
:10157000440260934502709346028093AE017894D2
:10158000C201DF91CF911F910F91FF90EF90DF90FB
:10159000CF90AF909F908F907F906F905F904F9083
:1015A0000C942006539A08954F925F926F927F9207
:1015B0008F929F92AF92CF92DF92EF92FF920F9312
:1015C0001F93CF93DF93EB010F962C010E942A0605
:1015D000F894E881F9810BB100611BB11F7E1BB942
:1015E000CA848F814C2D481B842F4F839F846A802F
:1015F0007B80FD84EC84DE84F394E394D3949E8119
:1016000038858984AB844181D30120E0622F722F19
:101610007181442788947111780F08F47FEF8195C8
:101620008894F0FC470F47958894F1FC470F479545
:101630008894F2FC470F47958894F3FC470F479531
:101640008894F4FC470F47958894F5FC470F47951D
:101650008894F6FC470F47958894F7FC470F479509
:101660008894272FF110242F8C0D422F002C0BB9BA
:1016700000C047FF1BB970812227889400C000C0BA
:10168000002C1BB97111790F00C0002C0BB900C0E0
:1016900046FF1BB908F47FEF9195889400C000C005
:1016A000002C1BB9E0FC270F00C0002C0BB900C0B8
:1016B00045FF1BB927958894E1FC270F00C000C0A7
:1016C000002C1BB92795889400C0002C0BB900C0D2
:1016D00044FF1BB9E2FC270F2795889400C000C087
:1016E000002C1BB9E3FC270F00C0002C0BB900C075
:1016F00043FF1BB927958894E4FC270F00C000C066
:10170000002C1BB92795889400C0002C0BB900C091
:1017100042FF1BB9E5FC270F2795889400C000C045
:10172000002C1BB9E6FC270F00C0002C0BB900C031
:1017300041FF1BB927958894E7FC270F00C000C024
:10174000002C1BB92795889400C0002C0BB900C051
:1017500040FF1BB9472FE110422F980D00C000C079
:10176000002C1BB900C000C0002C0BB900C047FF03
:101770001BB972812227889400C000C0002C1BB9BD
:101780007111730F00C0002C0BB900C046FF1BB9CC
:1017900008F47FEFE90DF11D00C000C0002C1BB95B
:1017A000D0FC270F00C0002C0BB900C045FF1BB9AF
:1017B00027958894D1FC270F00C000C0002C1BB9CE
:1017C0002795889400C0002C0BB900C044FF1BB9BA
:1017D000D2FC270F2795889400C000C0002C1BB9AD
:1017E000D3FC270F00C0002C0BB900C043FF1BB96E
:1017F00027958894D4FC270F00C000C0002C1BB98B
:101800002795889400C0002C0BB900C042FF1BB97B
:10181000D5FC270F2795889400C000C0002C1BB969
:10182000D6FC270F00C0002C0BB900C041FF1BB92C
:1018300027958894D7FC270F00C000C0002C1BB947
:101840002795889400C0002C0BB900C040FF1BB93D
:10185000472FD110422F319500C000C0002C1BB97A
:101860003A0D00C000C00BB900C047FF1BB9718121
:101870002227889400C000C0002C1BB97111780F7A
:1018800000C0002C0BB900C046FF1BB908F47FEF65
:101890008195889400C000C0002C1BB9F0FC270F74
:1018A00000C0002C0BB900C045FF1BB927958894D8
:1018B000F1FC270F00C000C0002C1BB927958894AD
:1018C00000C0002C0BB900C044FF1BB9F2FC270F6D
:1018D0002795889400C000C0002C1BB9F3FC270F8B
:1018E00000C0002C0BB900C043FF1BB9279588949A
:1018F000F4FC270F00C000C0002C1BB9279588946A
:1019000000C0002C0BB900C042FF1BB9F5FC270F2B
:101910002795889400C000C0002C1BB9F6FC270F47
:1019200000C0002C0BB900C041FF1BB9279588945B
:10193000F7FC270F00C000C0002C1BB92795889426
:1019400000C0002C0BB900C040FF1BB9472FF1109D
:10195000422F8C0D00C000C0002C1BB9119709F05C
:1019600086CE20EE31E0D3010E94B21FDC01CB0114
:10197000F4E0B695A79597958795FA95D1F730E05D
:1019800020E0B901EAE96E9E060C611D7E9E600DA5
:10199000711D1124670D711D860F971FA11DB11DAB
:1019A000893E43E09407A105B10508F434C0885E80
:1019B0009340A109B10942E0B695A79597958795FF
:1019C0004A95D1F747E0849F080E211D949F200D72
:1019D000311D1124290F311D6091AE0170E0860F79
:1019E000971F820F931F40914302509144026091D0
:1019F000450270914602292F3327420F531F611D64
:101A0000711D4093430250934402609345027093CA
:101A100046028093AE017894C201DF91CF911F916D
:101A20000F91FF90EF90DF90CF90AF909F908F90AD
:101A30007F906F905F904F900C942006549A089579
:101A40004F925F926F927F928F929F92AF92CF92BE
:101A5000DF92EF92FF920F931F93CF93DF93EB01EF
:101A60000F962C010E942A06F894E881F9810BB1A7
:101A700000621BB11F7D1BB9CA848F814C2D481B8E
:101A8000842F4F839F846A807B80FD84EC84DE8476
:101A9000F394E394D3949E8138858984AB84418107
:101AA000D30120E0622F722F718144278894711135
:101AB000780F08F47FEF81958894F0FC470F4795E5
:101AC0008894F1FC470F47958894F2FC470F47959F
:101AD0008894F3FC470F47958894F4FC470F47958B
:101AE0008894F5FC470F47958894F6FC470F479577
:101AF0008894F7FC470F47958894272FF110242FDF
:101B00008C0D422F002C0BB900C047FF1BB9708110
:101B10002227889400C000C0002C1BB97111790FD6
:101B200000C0002C0BB900C046FF1BB908F47FEFC2
:101B30009195889400C000C0002C1BB9E0FC270FD1
:101B400000C0002C0BB900C045FF1BB92795889435
:101B5000E1FC270F00C000C0002C1BB9279588941A
:101B600000C0002C0BB900C044FF1BB9E2FC270FDA
:101B70002795889400C000C0002C1BB9E3FC270FF8
:101B800000C0002C0BB900C043FF1BB927958894F7
:101B9000E4FC270F00C000C0002C1BB927958894D7
:101BA00000C0002C0BB900C042FF1BB9E5FC270F99
:101BB0002795889400C000C0002C1BB9E6FC270FB5
:101BC00000C0002C0BB900C041FF1BB927958894B9
:101BD000E7FC270F00C000C0002C1BB92795889494
:101BE00000C0002C0BB900C040FF1BB9472FE1100B
:101BF000422F980D00C000C0002C1BB900C000C0CF
:101C0000002C0BB900C047FF1BB9728122278894B2
:101C100000C000C0002C1BB97111730F00C0002C54
:101C20000BB900C046FF1BB908F47FEFE90DF11DA9
:101C300000C000C0002C1BB9D0FC270F00C0002C36
:101C40000BB900C045FF1BB927958894D1FC270F1D
:101C500000C000C0002C1BB92795889400C0002C40
:101C60000BB900C044FF1BB9D2FC270F27958894FD
:101C700000C000C0002C1BB9D3FC270F00C0002CF3
:101C80000BB900C043FF1BB927958894D4FC270FDC
:101C900000C000C0002C1BB92795889400C0002C00
:101CA0000BB900C042FF1BB9D5FC270F27958894BC
:101CB00000C000C0002C1BB9D6FC270F00C0002CB0
:101CC0000BB900C041FF1BB927958894D7FC270F9B
:101CD00000C000C0002C1BB92795889400C0002CC0
:101CE0000BB900C040FF1BB9472FD110422F3195CF
:101CF00000C000C0002C1BB93A0D00C000C00BB9D9
:101D000000C047FF1BB971812227889400C000C022
:101D1000002C1BB97111780F00C0002C0BB900C04A
:101D200046FF1BB908F47FEF8195889400C000C07E
:101D3000002C1BB9F0FC270F00C0002C0BB900C011
:101D400045FF1BB927958894F1FC270F00C000C000
:101D5000002C1BB92795889400C0002C0BB900C03B
:101D600044FF1BB9F2FC270F2795889400C000C0E0
:101D7000002C1BB9F3FC270F00C0002C0BB900C0CE
:101D800043FF1BB927958894F4FC270F00C000C0BF
:101D9000002C1BB92795889400C0002C0BB900C0FB
:101DA00042FF1BB9F5FC270F2795889400C000C09F
:101DB000002C1BB9F6FC270F00C0002C0BB900C08B
:101DC00041FF1BB927958894F7FC270F00C000C07E
:101DD000002C1BB92795889400C0002C0BB900C0BB
:101DE00040FF1BB9472FF110422F8C0D00C000C0DF
:101DF000002C1BB9119709F086CE20EE31E0D301FB
:101E00000E94B21FDC01CB01F4E0B695A79597952F
:101E10008795FA95D1F730E020E0B901EAE96E9EA6
:101E2000060C611D7E9E600D711D1124670D711DD4
:101E3000860F971FA11DB11D893E43E09407A105A0
:101E4000B10508F434C0885E9340A109B10942E0AD
:101E5000B695A795979587954A95D1F747E0849FC2
:101E6000080E211D949F200D311D1124290F311DB5
:101E70006091AE0170E0860F971F820F931F409113
:101E80004302509144026091450270914602292F0D
:101E90003327420F531F611D711D4093430250931E
:101EA000440260934502709346028093AE01789499
:101EB000C201DF91CF911F910F91FF90EF90DF90C2
:101EC000CF90AF909F908F907F906F905F904F904A
:101ED0000C942006559A08954F925F926F927F92CC
:101EE0008F929F92AF92CF92DF92EF92FF920F93D9
:101EF0001F93CF93DF93EB010F962C010E942A06CC
:101F0000F894E881F9810BB100641BB11F7B1BB908
:101F1000CA848F814C2D481B842F4F839F846A80F5
:101F20007B80FD84EC84DE84F394E394D3949E81DF
:101F300038858984AB844181D30120E0622F722FE0
:101F40007181442788947111780F08F47FEF81958F
:101F50008894F0FC470F47958894F1FC470F47950C
:101F60008894F2FC470F47958894F3FC470F4795F8
:101F70008894F4FC470F47958894F5FC470F4795E4
:101F80008894F6FC470F47958894F7FC470F4795D0
:101F90008894272FF110242F8C0D422F002C0BB981
:101FA00000C047FF1BB970812227889400C000C081
:101FB000002C1BB97111790F00C0002C0BB900C0A7
:101FC00046FF1BB908F47FEF9195889400C000C0CC
:101FD000002C1BB9E0FC270F00C0002C0BB900C07F
:101FE00045FF1BB927958894E1FC270F00C000C06E
:101FF000002C1BB92795889400C0002C0BB900C099
:1020000044FF1BB9E2FC270F2795889400C000C04D
:10201000002C1BB9E3FC270F00C0002C0BB900C03B
:1020200043FF1BB927958894E4FC270F00C000C02C
:10203000002C1BB92795889400C0002C0BB900C058
:1020400042FF1BB9E5FC270F2795889400C000C00C
:10205000002C1BB9E6FC270F00C0002C0BB900C0F8
:1020600041FF1BB927958894E7FC270F00C000C0EB
:10207000002C1BB92795889400C0002C0BB900C018
:1020800040FF1BB9472FE110422F980D00C000C040
:10209000002C1BB900C000C0002C0BB900C047FFCA
:1020A0001BB972812227889400C000C0002C1BB984
:1020B0007111730F00C0002C0BB900C046FF1BB993
:1020C00008F47FEFE90DF11D00C000C0002C1BB922
:1020D000D0FC270F00C0002C0BB900C045FF1BB976
:1020E00027958894D1FC270F00C000C0002C1BB995
:1020F0002795889400C0002C0BB900C044FF1BB981
:10210000D2FC270F2795889400C000C0002C1BB973
:10211000D3FC270F00C0002C0BB900C043FF1BB934
:1021200027958894D4FC270F00C000C0002C1BB951
:102130002795889400C0002C0BB900C042FF1BB942
:10214000D5FC270F2795889400C000C0002C1BB930
:10215000D6FC270F00C0002C0BB900C041FF1BB9F3
:1021600027958894D7FC270F00C000C0002C1BB90E
:102170002795889400C0002C0BB900C040FF1BB904
:10218000472FD110422F319500C000C0002C1BB941
:102190003A0D00C000C00BB900C047FF1BB97181E8
:1021A0002227889400C000C0002C1BB97111780F41
:1021B00000C0002C0BB900C046FF1BB908F47FEF2C
:1021C0008195889400C000C0002C1BB9F0FC270F3B
:1021D00000C0002C0BB900C045FF1BB9279588949F
:1021E000F1FC270F00C000C0002C1BB92795889474
:1021F00000C0002C0BB900C044FF1BB9F2FC270F34
:102200002795889400C000C0002C1BB9F3FC270F51
:1022100000C0002C0BB900C043FF1BB92795889460
:10222000F4FC270F00C000C0002C1BB92795889430
:1022300000C0002C0BB900C042FF1BB9F5FC270FF2
:102240002795889400C000C0002C1BB9F6FC270F0E
:1022500000C0002C0BB900C041FF1BB92795889422
:10226000F7FC270F00C000C0002C1BB927958894ED
:1022700000C0002C0BB900C040FF1BB9472FF11064
:10228000422F8C0D00C000C0002C1BB9119709F023
:1022900086CE20EE31E0D3010E94B21FDC01CB01DB
:1022A000F4E0B695A79597958795FA95D1F730E024
:1022B00020E0B901EAE96E9E060C611D7E9E600D6C
:1022C000711D1124670D711D860F971FA11DB11D72
:1022D000893E43E09407A105B10508F434C0885E47
:1022E0009340A109B10942E0B695A79597958795C6
:1022F0004A95D1F747E0849F080E211D949F200D39
:10230000311D1124290F311D6091AE0170E0860F3F
:10231000971F820F931F4091430250914402609196
:10232000450270914602292F3327420F531F611D2A
:10233000711D409343025093440260934502709391
:1023400046028093AE017894C201DF91CF911F9134
:102350000F91FF90EF90DF90CF90AF909F908F9074
:102360007F906F905F904F900C942006569A08953E
:102370000F931F93CF93DF93CDB7DEB762970FB65E
:10238000F894DEBF0FBECDBF8C01F901DC011C96B5
:102390008C917A8369835C834B835E834D839081C8
:1023A0009D8791819E8792819F878130F1F4CE0134
:1023B00001960E94E30583E0888B1A8A198AD80166
:1023C000ED91FC910484F585E02DBE016F5F7F4F98
:1023D000C801099562960FB6F894DEBF0FBECDBF57
:1023E000DF91CF911F910F9108951C861B861A864D
:1023F000198618861F82DFCF0F931F93CF93DF9329
:10240000CDB7DEB762970FB6F894DEBF0FBECDBF73
:102410008C01F901DC011C968C917A8369835C83C1
:102420004B835E834D8390819D8791819E879281AE
:102430009F878130E9F4CE0101960E94E305188A56
:102440001A8A198AD801ED91FC910484F585E02D52
:10245000BE016F5F7F4FC801099562960FB6F89471
:10246000DEBF0FBECDBFDF91CF911F910F910895B9
:102470001C861B861A86198618861F82E0CFEF926B
:10248000FF920F931F93CF93DF9300D01F92CDB78E
:10249000DEB78C017B01FB018081898381818A8386
:1024A00082818B83F801618170E0AE014F5F5F4FE5
:1024B000C80103960E943C02F701808189838181D3
:1024C0008A8382818B83C801835A9F4FFC0161817B
:1024D00070E0AE014F5F5F4F03960E943C020F9089
:1024E0000F900F90DF91CF911F910F91FF90EF9080
:1024F0000895EF92FF920F931F93CF93DF9300D035
:102500001F92CDB7DEB77C018B01FB0180818983EF
:1025100081818A8382818B83BE016F5F7F4FC70178
:102520000E943F12F8018081898381818A838281A0
:102530008B83BE016F5F7F4FC70186549F4F0E9400
:102540003F12F8018081898381818A8382818B8314
:10255000C7018C589E4FFC01618170E0AE014F5F56
:102560005F4F03960E943C020F900F900F90DF91F7
:10257000CF911F910F91FF90EF900895CF93DF932C
:1025800000D01F92CDB7DEB7CA0127E030E0FB01D3
:10259000358B248B19821A821B82BE016F5F7F4F9D
:1025A0000E9479120F900F900F90DF91CF910895B4
:1025B000CF93DF93FC01EA01818190E068177907EE
:1025C000FCF42281222331F09C01261B370BB90138
:1025D00061507109CB010196DC01AA0FBB1FA80F46
:1025E000B91FAE0FBF1F88818C93CB01880F991F35
:1025F000680F791FE60FF71F898184838A8185839D
:10260000DF91CF910895CF92DF92EF92FF920F93D7
:102610001F93CF93DF9300D01F92CDB7DEB77C011D
:102620006B018A01FA018081898381818A83828199
:102630008B83AE014F5F5F4FC7010E94D812F80134
:102640008081898381818A8382818B83AE014F5F00
:102650005F4FB601C701835A9F4F0E94D8120F9057
:102660000F900F90DF91CF911F910F91FF90EF90FE
:10267000DF90CF900895CF92DF92EF92FF920F9369
:102680001F93CF93DF9300D01F92CDB7DEB77C01AD
:102690006B018A01FA018081898381818A83828129
:1026A0008B83AE014F5F5F4FC7010E940313F80198
:1026B0008081898381818A8382818B83AE014F5F90
:1026C0005F4FB601C70186549F4F0E940313F80164
:1026D0008081898381818A8382818B83AE014F5F70
:1026E0005F4FB601C7018C589E4F0E94D8120F90C1
:1026F0000F900F90DF91CF911F910F91FF90EF906E
:10270000DF90CF90089590E080E00895FC018585EA
:1027100096850895CF93DF9300D000D000D0CDB739
:10272000DEB7AB011C821D821E82DC01ED91FC91A3
:102730000190F081E02D19821A821B829E012F5F89
:102740003F4FBE016C5F7F4F099526960FB6F894F8
:10275000DEBF0FBECDBFDF91CF910895FC0183E1B5
:1027600091E091838083138212828FEF8683878327
:10277000808781878287838781E084871686158694
:102780001582148280914D0290914E02892B21F482
:10279000F0934E02E0934D02A091AC01B091AD01D7
:1027A000109721F01596FC93EE931497F093AD01DA
:1027B000E093AC010895DC01ED91FD918081ED91F4
:1027C000FD919081ED91FD916C9163708E2309F0E4
:1027D00064609F2309F06860E8EFF3E1E60FF11D04
:1027E000659565956D936D917D918D919D91099400
:1027F00023C01AC012C016C010C01EC009C014C029
:1028000013C006C019C009C00DC007C00DC014C058
:1028100062507040804090400BC0615070408040DA
:10282000904006C06E5F01C06F5F7F4F8F4F9F4F1C
:102830009E938E937E936E9308958091AA019091BA
:10284000AB010C94DB138091A8019091A9010C9429
:10285000DB13CF93DF93EC018B819C819E838D836F
:102860008A89823008F5F894CE0107960E94DB131E
:102870006E857F8588899989789424E030E040E0EE
:1028800050E00E94171FC901E88169817A81EE2317
:1028900069F037FF02C0CB0101970E948A1F9C8319
:1028A0008B83DF91CF910895F894E2CF37FF02C078
:1028B00030E020E02617370708F4B9017C836B83EA
:1028C000F0CFFC0101900020E9F73197AF01481BE0
:1028D000590BBC0180E692E00C94A2048F929F9267
:1028E000AF92BF920F931F93CF93DF93CDB7DEB715
:1028F000A1970FB6F894DEBF0FBECDBF19A242302C
:1029000008F44AE08E010F5D1F4F842E912CB12CEC
:10291000A12CA50194010E94491FE62FB901CA010B
:10292000EA30F4F4E05DD801EE938D01232B242BE3
:10293000252B79F790E080E0109719F0CD010E94E7
:102940006114A1960FB6F894DEBF0FBECDBFDF9124
:10295000CF911F910F91BF90AF909F908F9008954E
:10296000E95CE1CF0E94E420CF93DF93EC011A826F
:102970000E94BF1E25E030E040E050E00E94171F9B
:10298000798368830E94BF1E24E630E040E050E077
:102990000E94171F6B83DF91CF9108954F925F9232
:1029A0006F927F92AF92BF92CF92DF92EF92FF929F
:1029B0000F931F93CF93DF93CDB7DEB7E3970FB697
:1029C000F894DEBF0FBECDBF7C01162F411147C06A
:1029D00068EA71E021114EC08FEF89AB8AAB8BABF7
:1029E000AE014F5C5F4F60E170E0CE0101960E9446
:1029F0003C02D70113968D919C91009729F00E947B
:102A00005B20F70114821382D70112961C93A12E2A
:102A1000B12CB7E01B9FC00111240E94BF1F582E8C
:102A2000692E082F192F650177247A94E1E0AE1AF8
:102A3000B10828F1D80112961C92129713961C9295
:102A4000139714967C92149715967C921597169668
:102A50007C92C8010E94B414095F1F4FE7CF68EE53
:102A600071E0222339F06DEF72E0CE0101960E94F1
:102A7000C101BFCFCE0101960E94AF05BACFF701C9
:102A80005382648210E000E0B12CA12C412C512C27
:102A900032014A94AC14BD040CF50E94BF1EA30180
:102AA00092010E94171F462F2FEFBE016F5F7F4FCD
:102AB000CE01C1960E94D901D7011396ED91FC91E8
:102AC000E00FF11F89A984838AA985838BA9868356
:102AD000BFEFAB1ABB0A095F1F4FDCCFE3960FB6FF
:102AE000F894DEBF0FBECDBFDF91CF911F910F9144
:102AF000FF90EF90DF90CF90BF90AF907F906F905E
:102B00005F904F900895FB01138A2EE130E0358BE2
:102B1000248B20E040E063E00C94CE142F923F928F
:102B20004F925F926F927F928F929F92AF92BF92DD
:102B3000CF92DF92EF92FF920F931F93CF93DF9389
:102B400000D000D000D01F92CDB7DEB74C018B0172
:102B50006A0119821A821B82BE016F5F7F4FCA0110
:102B60000E947912F80166897789208D318D82A5BE
:102B700095A52617370731F423A5821303C026A590
:102B8000921759F021E0911120E041E0811140E0DD
:102B9000660F660FC4010E94CE14712C612CB12CFB
:102BA000A12CC601835A9F4F9D838C83F601E65466
:102BB000FF4FFF83EE831601F9EE2F1AFEEF3F0A57
:102BC00026018CE8481A8EEF580AF40182818A1592
:102BD0001B0409F00CF44BC003811481060D171D72
:102BE000F801808191818230910579F118F5009783
:102BF00041F1019741F1F801838181110EC0848177
:102C0000898385818A8386818B83628170E0AE01AE
:102C10004F5F5F4FC7010E94D812F801838188235C
:102C2000D1F081508383FFEFAF1ABF0A87E0680EAF
:102C3000711CCBCF8330910559F00497E1F67101F7
:102C4000DACF7201D8CF7601D6CFEC80FD80D3CF1A
:102C5000EE80FF80D0CFF7019181F80182818F5FF4
:102C60008283891700F3C8010E94B414DCCF279631
:102C70000FB6F894DEBF0FBECDBFDF91CF911F918D
:102C80000F91FF90EF90DF90CF90BF90AF909F900B
:102C90008F907F906F905F904F903F902F9008950E
:102CA0002F923F924F925F926F927F928F929F925C
:102CB000AF92BF92CF92DF92EF92FF920F931F934A
:102CC000CF93DF93EC016A834B83062F10E0C8019A
:102CD000880F991F0E94BF1F99838883F12CE12CD4
:102CE0004DE1442E512C612C712C5FE7852E912CE7
:102CF000A12CB12CE016F106FCF40E94BF1E670166
:102D0000CC0CDD1C288039802C0C3D1CA3019201C9
:102D10000E94171FF10160830E94BF1E2881398124
:102D2000C20ED31EA50194010E94171FF6016183F4
:102D3000FFEFEF1AFF0ADECFDF91CF911F910F91C6
:102D4000FF90EF90DF90CF90BF90AF909F908F90CB
:102D50007F906F905F904F903F902F9008954F928B
:102D60005F926F927F928F929F92BF92CF92DF92EB
:102D7000EF92FF920F931F93CF93DF93CDB7DEB700
:102D8000C658D1400FB6F894DEBF0FBECDBF8C0140
:102D90007B016A01DB019A969C919A979B968C9194
:102DA0009B97981307C09D969C919D979E968C919A
:102DB0009817C9F1F801838094808114910469F017
:102DC000D4018D919C91009711F00E945B20C40169
:102DD0000E945B20F80114821382D7019D968C918A
:102DE0009D979A969C9191110BC181110EC084E020
:102DF00090E00E94BF1F4C0144E06AE0C4010E94C1
:102E00005016F801948283820EC084E090E00E9404
:102E1000BF1F4C0143E067E00E945016D801149692
:102E20009C928E92139768EE71E0CE0101960E94FB
:102E3000CA0568EA71E0CE01C1960E94CA0568E63B
:102E400071E0CE018F599F4F0E94CA0568E271E080
:102E5000CE018F569F4F0E94CA0568EE70E0CE01EA
:102E60008F539F4F0E94CA0568EA70E0CE018F50D1
:102E70009F4F0E94CA0568E670E0CE018F5D9E4FAD
:102E80000E94CA05D70156968D919C9120E3289FF8
:102E9000B001299F700D1124E1E0F0E0EC0FFD1F5F
:102EA0006E0F7F1FCE018F5A9E4F0E94C101F12CE1
:102EB000E12CD80112964C914E0D20E8BE016F5ABC
:102EC0007E4FCE018C579E4F0E94D901CC57DE4FCA
:102ED0008881C458D140CF57DE4F8883C158D14034
:102EE000CB57DE4F8881C558D140CE57DE4F8883FF
:102EF000C258D140CA57DE4F8881C658D140CD57FD
:102F0000DE4F8883C358D140AE014F575E4FB701A3
:102F1000C6010E943B13BFEFEB1AFB0AEEE1EE166F
:102F2000F10439F6D80113968D919C91892B09F4FF
:102F3000A1C0F12CE12CBB24BA94F80183809480C9
:102F4000D40112968C9112978E151F0409F00CF47F
:102F500061C0ED91FC91C701880F991FE80FF91F1F
:102F600060818181982F86FD9095E92FEF739F7086
:102F700086FD9F5FE695E695E695E670F0E0E15EFA
:102F8000FE4F2181299F202D912D112422952F70F4
:102F90009295907F292B9081290F87FD21952F5F96
:102FA0005B2D552321F0529F512D09F05F5F4B2D72
:102FB000442321F0429F412D09F04F5F3B2D3323E5
:102FC00021F0329F312D09F03F5F1124CF57DE4FA2
:102FD0005883C158D140CE57DE4F4883C258D140A4
:102FE000CD57DE4F3883C358D14070E0AE014F5704
:102FF0005E4FC6010E943B13BFEFEB1AFB0A9DCF49
:10300000811111CF84E090E00E94BF1F4C0142E08B
:1030100064E0F4CEF12CE12C9DE1492E512C612C81
:10302000712CF40182818E151F0421F11CF16701BE
:10303000CC0CDD1C0190F081E02DEC0DFD1D81819B
:10304000D40113969C91890F8F3728F48183BFEFA9
:10305000EB1AFB0AE6CF11820E94BF1EF401208109
:103060003181C20ED31EA30192010E94171FD60107
:103070006C93EDCFF80182818F5F8283CA57DE4F58
:103080000FB6F894DEBF0FBECDBFDF91CF911F9179
:103090000F91FF90EF90DF90CF90BF909F908F9017
:1030A0007F906F905F904F9008951F920F920FB690
:1030B0000F9211242F933F938F939F93AF93BF93BE
:1030C0008091430290914402A0914502B091460242
:1030D00030913E0223E0230F2D3758F50196A11DB4
:1030E000B11D20933E028093430290934402A0932B
:1030F0004502B093460280913F0290914002A09118
:103100004102B09142020196A11DB11D80933F0280
:1031100090934002A0934102B0934202BF91AF91BD
:103120009F918F913F912F910F900FBE0F901F9005
:10313000189526E8230F0296A11DB11DD2CF1F922C
:103140000F920FB60F9211242F933F934F935F93DB
:103150006F937F938F939F93AF93BF93EF93FF935F
:10316000E0910201F09103010995FF91EF91BF9168
:10317000AF919F918F917F916F915F914F913F910F
:103180002F910F900FBE0F901F9018951F920F92C6
:103190000FB60F9211242F933F934F935F936F932A
:1031A0007F938F939F93AF93BF93EF93FF93E091A0
:1031B0000001F09101010995FF91EF91BF91AF914D
:1031C0009F918F917F916F915F914F913F912F913F
:1031D0000F900FBE0F901F9018951F920F920FB671
:1031E0000F9211242F933F934F935F936F937F938D
:1031F0008F939F93AF93BF93EF93FF93809132028E
:1032000090913302A0913402B0913502892B8A2B20
:103210008B2BD1F190912D02E0912E02F0912F0293
:103220008081892780838091320290913302A0911E
:103230003402B0913502181619061A061B069CF4C2
:103240008091320290913302A0913402B091350204
:103250000197A109B1098093320290933302A093A0
:103260003402B0933502FF91EF91BF91AF919F91DE
:103270008F917F916F915F914F913F912F910F901F
:103280000FBE0F901F901895809104010E94520468
:10329000EACF1F920F920FB60F9211242F933F93F4
:1032A0004F935F936F937F938F939F93AF93BF934E
:1032B000EF93FF9380E692E00E942005FF91EF914B
:1032C000BF91AF919F918F917F916F915F914F913E
:1032D0003F912F910F900FBE0F901F9018951F9246
:1032E0000F920FB60F9211242F938F939F93EF930A
:1032F000FF93E0917002F09171028081E09176027B
:10330000F091770282FD1BC09081809179028F5FDE
:103310008F7320917A02821741F0E0917902F0E0F8
:10332000E05AFD4F958F80937902FF91EF919F9125
:103330008F912F910F900FBE0F901F901895808145
:10334000F4CF80E008950F931F93CF93DF93EC01A8
:10335000062F142F62E0802F0E94A30262E0812FCB
:103360000E94A302802F90E0FC01E95BFD4FE491F5
:10337000F0E0EE0FFF1FE35CFD4FA591B491B98320
:10338000A883FC01E55AFD4F24912C83812F90E006
:10339000FC01E95BFD4FE491F0E0EE0FFF1FE35C01
:1033A000FD4F459154915B834A83FC01E55AFD4FE3
:1033B000E491ED831F82188619861A868BE39FE1BC
:1033C0000197F1F78C91282391E009F490E0DA015C
:1033D0008C91E82309F092609E83BE01802F0E94A9
:1033E000A119082FBE01812F0E94A119800F8B8780
:1033F000DF91CF911F910F910895EF92FF920F935C
:103400001F93CF93DF93E3E5F2E08FEF8083128287
:103410001182148613864FEF5FEFBA0147835087FE
:1034200061877287E0E6F2E01382128248EE53E091
:1034300060E070E0448355836683778325E931E05B
:103440003183208325EC30E03587248724EC30E07D
:103450003787268720EC30E0318B208B21EC30E061
:10346000338B228B22EC30E0358B248B26EC30E042
:10347000378B268B118E128E138E148EEDEFF2E0A9
:1034800029E9208396E691839CEC928313828483BE
:1034900085833FE73683878334ED308736EE318787
:1034A00032873AEF33873AE834873BE2358732EEAA
:1034B00036873FE537873EE9308B30EA318B34E69B
:1034C000328B35E9338B3DEE348B3BE8358B168AF6
:1034D000378B208F22E3218F928F838F94E1948FFB
:1034E00093E9958F868F90EF978F95EF90A39EE14C
:1034F00091A320E922A383A314A22EEC25A321EDFE
:1035000026A387A310A681A782A729E623A724EBD9
:1035100024A785A726EB26A721EC27A7EDE2F3E059
:1035200023E032E0DF01E9011D922197E9F7808372
:10353000AEE2B3E021ED31E0ED01A9011992415075
:103540005040E1F782E081838BE18283138223E0A4
:1035500020938B0380938C0310928D0384E08093DF
:10356000E8038DE18093E9031092EA0325E02093BC
:103570004504809346041092470426E02093A20459
:103580009093A3041092A404E1E1F5E0DF011D9201
:103590008A95E9F7C1E0C093FF0485E0E82EF12C9D
:1035A000F0920105E09200051092030510920205C9
:1035B0000FEF10E010930505009304054CE06BE05D
:1035C00086E095E00E94A319C0931205F0921405BD
:1035D000E092130510921605109215051093180528
:1035E000009317054EE06FE089E195E00E94A31972
:1035F00087E080932505C09326051092270588E073
:1036000080932805C093290510922A0589E08093AC
:103610002B05C0932C0510922D0510922F051092AA
:103620002E05DF91CF911F910F91FF90EF9008959C
:10363000789484B5826084BD84B5816084BD85B58D
:10364000826085BD85B5816085BD80916E00816099
:1036500080936E001092810080918100826080933F
:103660008100809181008160809381008091800041
:103670008160809380008091B10084608093B1006C
:103680008091B00081608093B00080917A00846066
:1036900080937A0080917A00826080937A00809192
:1036A0007A00816080937A0080917A0080688093AC
:1036B0007A001092C100E0917002F091710282E0F4
:1036C0008083E0916C02F0916D021082E0916E02B5
:1036D000F0916F028FEC808310927802E091740277
:1036E000F091750286E08083E0917202F09173029E
:1036F000808180618083E0917202F0917302808109
:1037000088608083E0917202F0917302808180680A
:103710008083E0917202F091730280818F7D8083BB
:1037200068EB7BE080E090E00E941F0411E01093C2
:10373000260562E0809125050E94A30210932905C9
:1037400062E0809128050E94A30210932C0562E09C
:1037500080912B050E94A30210920305109202058E
:10376000F89410920D0510920E0510920F0510920C
:10377000100578941092160510921505F894109281
:1037800020051092210510922205109223057894AD
:10379000E0902F03F12C80912502811110C084E16B
:1037A00092E00E94AE13109224021092230283E74B
:1037B00091E0909315028093140210932502A701C3
:1037C00061E373E084E192E00E946D01FC018FEF00
:1037D000868380EB878380EF808700918C0310E0E5
:1037E00080910C02811111C08BEF91E00E94AE1309
:1037F00010920B0210920A0281E691E09093FC0174
:103800008093FB0181E080930C02A8016EE873E0D5
:103810008BEF91E00E946D01FC018FEF868380EBBE
:10382000878380EF80870091E90310E08091F301A6
:10383000811111C082EE91E00E94AE131092F2014C
:103840001092F1018FE491E09093E3018093E20103
:1038500081E08093F301A8016BEE73E082EE91E0CA
:103860000E946D01FC018FEF868380EB878380EFE0
:1038700080870091460410E08091DA01811111C027
:1038800089EC91E00E94AE131092D9011092D801F8
:103890008DE391E09093CA018093C90181E0809308
:1038A000DA01A80168E474E089EC91E00E946D01FE
:1038B000FC018FEF868380EB878380EF8087009108
:1038C000A30410E08091C101811111C080EB91E04F
:1038D0000E94AE131092C0011092BF018BE291E0E2
:1038E0009093B1018093B00181E08093C101A80160
:1038F00065EA74E080EB91E00E946D01FC018FEFBE
:10390000868380EB878380EF808780E480935302F7
:1039100082E090E09093010580930005CC24CA9446
:10392000DC2C760141E5642E42E0742E55E6452EEE
:1039300052E0552E6DE8262E61E0362E8091260548
:1039400080932705809125050E947A0280932605A1
:103950008091290580932A05809128050E947A028A
:103960008093290580912C0580932D0580912B054E
:103970000E947A0280932C058FEF94E00E94291414
:1039800082E195E00E9429146091290570E090E0A1
:1039900080E04AE00E946E1483EA91E00E94611484
:1039A00060912C0570E090E080E04AE00E946E1487
:1039B00083EA91E00E9461146091260570E090E036
:1039C00080E04AE00E946E1483EA91E00E94611454
:1039D000609102057091030590E080E04AE00E944A
:1039E0006E1483EA91E00E94611460911505709154
:1039F000160590E080E04AE00E946E1483EA91E0B0
:103A00000E94611485EA91E00E946114809126056C
:103A100081114DC1809104018A3031F5E8E2F2E074
:103A2000149117FDC0C061E08AE00E94A302112337
:103A300009F489C0123009F09AC08091B100887FE2
:103A400086608093B10083EF8093B300C09232020E
:103A5000D0923302E0923402F092350280917000ED
:103A60008260809370009FC08F3F09F09CC08AE005
:103A700080930401E8E2F2E014911F3F09F493C03F
:103A8000113019F150F0123009F43CC017FD8BC011
:103A900061E08AE00E94A302CDCF14BC15BC84B5BE
:103AA000826084BD85B5816085BDF3018491E82F76
:103AB000F0E0EE0FFF1FE75DFD4F85919491F2015D
:103AC00084918093310210E0AECF1092800010926A
:103AD00081008091810088608093810080918100C5
:103AE000816080938100F3018491E82FF0E0EE0F74
:103AF000FF1FE75DFD4F85919491F20184918093C2
:103B0000300291CF1092B0001092B1008091B000BD
:103B100082608093B0008091B10081608093B10099
:103B2000F3018491E82FF0E0EE0FFF1FE75DFD4FFA
:103B30008591949190932F0280932E02F2018491AB
:103B400080932D0270CF85B5887F846085BD83EF1B
:103B500087BDC0923A02D0923B02E0923C02F092C2
:103B60003D0280916E00826080936E001CC0113017
:103B700009F095C080918100887F816080938100E9
:103B800083E294EF9093890080938800C09236027C
:103B9000D0923702E0923802F092390280916F00A1
:103BA000826080936F00A0900205B0900305809121
:103BB0002D038A151B0459F180912E0590912F0534
:103BC000009711F00E945B201A2D6A2D70E090E0A2
:103BD00080E04AE00E946E1485EA91E00E94611440
:103BE000AA2009F468C0113009F470C0D0932F05E1
:103BF000C0932E05A0922D03E881F9810190F081F8
:103C0000E02D4EE253E06FEF74E0CE010995809114
:103C10002E0590912F05DC01ED91FC910280F3813E
:103C2000E02D4EE253E06FEF74E00995809153026E
:103C30000E94F9028FB7F89480904302909044025A
:103C4000A0904502B09046028FBF61E070E080E036
:103C500090E00E941F04809153020E94F9022FB746
:103C6000F8948091430290914402A0914502B09152
:103C700046022FBF88199909AA09BB090A97A1050D
:103C8000B10518F3E0E0F0E0EF2B09F457CE0E9405
:103C90000C05882309F452CE0E9400004FCE12304A
:103CA00021F0111180CF83E253CF83E2CDCE8AE0A1
:103CB0000E94520478CF85E090E00E94BF1FEC0183
:103CC000398228821A821C821B8290CF86E090E083
:103CD0000E94BF1FEC01A5E8B1E0B983A8831C8254
:103CE0001B821D8283CF8F929F92AF92BF92CF9201
:103CF000DF92EF92FF92CF93DF93EC01688179819D
:103D00008A819B81611571058105910521F464E229
:103D100079ED8BE597E02DE133EF41E050E00E9433
:103D2000171F49015A019B01AC01A7EAB1E40E94A7
:103D3000361F6B017C01ACEEB4EFA50194010E942B
:103D4000441FC60ED71EE81EF91EF7FE06C081E00E
:103D5000C81AD108E10880E8F80AC882D982EA8244
:103D6000FB82C701B6019F77DF91CF91FF90EF9063
:103D7000DF90CF90BF90AF909F908F9008958F92DB
:103D80009F92AF92BF92CF92DF92EF92FF9260919B
:103D9000050170910601809107019091080161155C
:103DA00071058105910521F464E279ED8BE597E0D9
:103DB0002DE133EF41E050E00E94171F49015A0105
:103DC0009B01AC01A7EAB1E40E94361F6B017C01A4
:103DD000ACEEB4EFA50194010E94441FC60ED71E9D
:103DE000E81EF91EF7FE06C081E0C81AD108E108F6
:103DF00080E8F80AC0920501D0920601E09207011E
:103E0000F0920801C701B6019F77FF90EF90DF9015
:103E1000CF90BF90AF909F908F90089560930501D1
:103E20007093060180930701909308010895052E71
:103E300097FB1EF400940E942E1F57FD07D00E948E
:103E4000491F07FC03D04EF40C942E1F509540954B
:103E5000309521953F4F4F4F5F4F08959095809536
:103E6000709561957F4F8F4F9F4F08950E946B1FF4
:103E7000A59F900DB49F900DA49F800D911D1124BE
:103E80000895B7FF0C94361F0E94361F821B930BB8
:103E90000895A1E21A2EAA1BBB1BFD010DC0AA1F8B
:103EA000BB1FEE1FFF1FA217B307E407F50720F0A3
:103EB000A21BB30BE40BF50B661F771F881F991F1E
:103EC0001A9469F760957095809590959B01AC0167
:103ED000BD01CF010895A29FB001B39FC001A39F70
:103EE000700D811D1124911DB29F700D811D112433
:103EF000911D0895DB018F939F930E94361FBF9100
:103F0000AF91A29F800D911DA39F900DB29F900D28
:103F100011240895AA1BBB1B51E107C0AA1FBB1F98
:103F2000A617B70710F0A61BB70B881F991F5A9545
:103F3000A9F780959095BC01CD01089597FB072EB8
:103F400016F4009407D077FD09D00E948A1F07FC61
:103F500005D03EF4909581959F4F08957095619599
:103F60007F4F08950E946B1FB7FF0895821B930B2C
:103F70000895EE0FFF1F0590F491E02D09940F9323
:103F80001F93CF93DF938230910510F482E090E08D
:103F9000E0913205F091330530E020E0B0E0A0E0A0
:103FA000309799F42115310509F44AC0281B390BC3
:103FB00024303105D8F58A819B816115710589F11D
:103FC000FB0193838283FE0111C0408151810281F4
:103FD000138148175907E0F04817590799F41097CB
:103FE00061F012960C93129713961C933296CF01A0
:103FF000DF91CF911F910F91089500933205109397
:104000003305F4CF2115310551F04217530738F02D
:10401000A901DB019A01BD01DF01F801C1CFEF0168
:10402000F9CF9093330580933205CDCFFE01E20F97
:10403000F31F819391932250310939832883D7CF7D
:104040002091300530913105232B41F420910B0153
:1040500030910C01309331052093300520910901F6
:1040600030910A012115310541F42DB73EB7409139
:104070000D0150910E01241B350BE0913005F0919C
:104080003105E217F307A0F42E1B3F0B2817390761
:1040900078F0AC014E5F5F4F2417350748F04E0FA4
:1040A0005F1F5093310540933005819391939FCFCB
:1040B000F0E0E0E09CCFCF93DF930097E9F0FC01C4
:1040C000329713821282A0913205B0913305ED012F
:1040D00030E020E01097A1F420813181820F931FFE
:1040E00020913005309131052817390709F061C05A
:1040F000F0933105E0933005DF91CF910895EA0107
:10410000CE17DF07E8F54A815B819E014115510515
:10411000B1F7E901FB83EA8349915991C40FD51F97
:10412000EC17FD0761F4808191810296840F951F41
:10413000E90199838883828193819B838A83F0E05C
:10414000E0E012968D919C9113970097B9F52D910F
:104150003C911197CD010296820F931F209130055B
:10416000309131052817390739F6309751F51092FB
:10417000330510923205B0933105A0933005BCCFC2
:10418000D383C28340815181840F951FC817D907FB
:1041900061F44E5F5F4F88819981480F591F5183A9
:1041A00040838A819B81938382832115310509F0A5
:1041B000B0CFF0933305E09332059ECFFD01DC01D3
:1041C000C0CF13821282D7CF81E090E0F8940C9494
:0641D000E920F894FFCF86
:1041D60051045104FF010000000000340580000076
:1041E600000000B214B214B2148A138613831300AB
:1041F6003131295A1B750A00000000FC11B811B6AE
:10420600118A13861383086C0F00000000FC11B896
:10421600116A0F8A1386138308200D00000000FC24
:1042260011B8111E0D8A1386138308D40A000000E4
:1042360000FC11B811D20A8A138613830888080075
:10424600000000FC11B81186088A1386138308390A
:10425600060000000083158E1500000000BE12AF98
:1042660016000000004205A204CF048F050005DEFB
:0842760004F20420000D0A000F
:00000001FF
